{"abi":[{"type":"constructor","inputs":[{"name":"name_","type":"string","internalType":"string"},{"name":"symbol_","type":"string","internalType":"string"},{"name":"depositTokenAddress_","type":"address","internalType":"address"},{"name":"expirationDate_","type":"uint256","internalType":"uint256"}],"stateMutability":"nonpayable"},{"type":"function","name":"allowance","inputs":[{"name":"owner","type":"address","internalType":"address"},{"name":"spender","type":"address","internalType":"address"}],"outputs":[{"name":"","type":"uint256","internalType":"uint256"}],"stateMutability":"view"},{"type":"function","name":"approve","inputs":[{"name":"spender","type":"address","internalType":"address"},{"name":"value","type":"uint256","internalType":"uint256"}],"outputs":[{"name":"","type":"bool","internalType":"bool"}],"stateMutability":"nonpayable"},{"type":"function","name":"balanceOf","inputs":[{"name":"account","type":"address","internalType":"address"}],"outputs":[{"name":"","type":"uint256","internalType":"uint256"}],"stateMutability":"view"},{"type":"function","name":"borrow","inputs":[{"name":"_collateralAssetAddress","type":"address","internalType":"address"},{"name":"_collateralAssetAmount","type":"uint256","internalType":"uint256"},{"name":"_borrowAssetAddress","type":"address","internalType":"address"},{"name":"_borrowAssetAmount","type":"uint256","internalType":"uint256"}],"outputs":[],"stateMutability":"nonpayable"},{"type":"function","name":"buyLiquidationAsset","inputs":[{"name":"_sellAssetAddress","type":"address","internalType":"address"},{"name":"_sellAssetAmount","type":"uint256","internalType":"uint256"},{"name":"_buyAssetAddress","type":"address","internalType":"address"},{"name":"_buyAssetAmount","type":"uint256","internalType":"uint256"}],"outputs":[],"stateMutability":"nonpayable"},{"type":"function","name":"decimals","inputs":[],"outputs":[{"name":"","type":"uint8","internalType":"uint8"}],"stateMutability":"view"},{"type":"function","name":"deposit","inputs":[{"name":"_amount","type":"uint256","internalType":"uint256"}],"outputs":[],"stateMutability":"nonpayable"},{"type":"function","name":"expirationDate","inputs":[],"outputs":[{"name":"","type":"uint256","internalType":"uint256"}],"stateMutability":"view"},{"type":"function","name":"getDepositBalance","inputs":[{"name":"_target","type":"address","internalType":"address"}],"outputs":[{"name":"","type":"uint256","internalType":"uint256"}],"stateMutability":"view"},{"type":"function","name":"getDepositToken","inputs":[],"outputs":[{"name":"","type":"address","internalType":"address"}],"stateMutability":"view"},{"type":"function","name":"name","inputs":[],"outputs":[{"name":"","type":"string","internalType":"string"}],"stateMutability":"view"},{"type":"function","name":"repayment","inputs":[{"name":"_collateralAssetAddress","type":"address","internalType":"address"},{"name":"_collateralAssetAmount","type":"uint256","internalType":"uint256"},{"name":"_borrowAssetAddress","type":"address","internalType":"address"},{"name":"_borrowAssetAmount","type":"uint256","internalType":"uint256"}],"outputs":[],"stateMutability":"nonpayable"},{"type":"function","name":"symbol","inputs":[],"outputs":[{"name":"","type":"string","internalType":"string"}],"stateMutability":"view"},{"type":"function","name":"totalSupply","inputs":[],"outputs":[{"name":"","type":"uint256","internalType":"uint256"}],"stateMutability":"view"},{"type":"function","name":"transfer","inputs":[{"name":"to","type":"address","internalType":"address"},{"name":"value","type":"uint256","internalType":"uint256"}],"outputs":[{"name":"","type":"bool","internalType":"bool"}],"stateMutability":"nonpayable"},{"type":"function","name":"transferFrom","inputs":[{"name":"from","type":"address","internalType":"address"},{"name":"to","type":"address","internalType":"address"},{"name":"value","type":"uint256","internalType":"uint256"}],"outputs":[{"name":"","type":"bool","internalType":"bool"}],"stateMutability":"nonpayable"},{"type":"function","name":"tryLiquidation","inputs":[{"name":"_target","type":"address","internalType":"address"}],"outputs":[],"stateMutability":"nonpayable"},{"type":"function","name":"withdrawal","inputs":[{"name":"_amount","type":"uint256","internalType":"uint256"}],"outputs":[],"stateMutability":"nonpayable"},{"type":"event","name":"Approval","inputs":[{"name":"owner","type":"address","indexed":true,"internalType":"address"},{"name":"spender","type":"address","indexed":true,"internalType":"address"},{"name":"value","type":"uint256","indexed":false,"internalType":"uint256"}],"anonymous":false},{"type":"event","name":"Transfer","inputs":[{"name":"from","type":"address","indexed":true,"internalType":"address"},{"name":"to","type":"address","indexed":true,"internalType":"address"},{"name":"value","type":"uint256","indexed":false,"internalType":"uint256"}],"anonymous":false},{"type":"event","name":"borrowTo","inputs":[{"name":"_to","type":"address","indexed":true,"internalType":"address"},{"name":"_asset","type":"address","indexed":false,"internalType":"address"},{"name":"_amount","type":"uint256","indexed":false,"internalType":"uint256"}],"anonymous":false},{"type":"event","name":"depositTo","inputs":[{"name":"_to","type":"address","indexed":true,"internalType":"address"},{"name":"_amount","type":"uint256","indexed":false,"internalType":"uint256"}],"anonymous":false},{"type":"event","name":"liquidationUpdate","inputs":[{"name":"_target","type":"address","indexed":true,"internalType":"address"},{"name":"liquidationAssetAddress","type":"address","indexed":true,"internalType":"address"},{"name":"liquidationAssetAmount","type":"uint256","indexed":false,"internalType":"uint256"}],"anonymous":false},{"type":"event","name":"positionUpdate","inputs":[{"name":"_to","type":"address","indexed":true,"internalType":"address"},{"name":"collateralAssetAddress","type":"address","indexed":false,"internalType":"address"},{"name":"collateralAssetAmount","type":"uint256","indexed":false,"internalType":"uint256"},{"name":"borrowAssetAddress","type":"address","indexed":false,"internalType":"address"},{"name":"borrowAssetAmount","type":"uint256","indexed":false,"internalType":"uint256"}],"anonymous":false},{"type":"event","name":"repaymentFrom","inputs":[{"name":"_from","type":"address","indexed":false,"internalType":"address"},{"name":"_borrowAssetAddress","type":"address","indexed":false,"internalType":"address"},{"name":"_borrowAssetAmount","type":"uint256","indexed":false,"internalType":"uint256"}],"anonymous":false},{"type":"event","name":"withdrawalTo","inputs":[{"name":"_to","type":"address","indexed":true,"internalType":"address"},{"name":"_amount","type":"uint256","indexed":false,"internalType":"uint256"}],"anonymous":false},{"type":"error","name":"ERC20InsufficientAllowance","inputs":[{"name":"spender","type":"address","internalType":"address"},{"name":"allowance","type":"uint256","internalType":"uint256"},{"name":"needed","type":"uint256","internalType":"uint256"}]},{"type":"error","name":"ERC20InsufficientBalance","inputs":[{"name":"sender","type":"address","internalType":"address"},{"name":"balance","type":"uint256","internalType":"uint256"},{"name":"needed","type":"uint256","internalType":"uint256"}]},{"type":"error","name":"ERC20InvalidApprover","inputs":[{"name":"approver","type":"address","internalType":"address"}]},{"type":"error","name":"ERC20InvalidReceiver","inputs":[{"name":"receiver","type":"address","internalType":"address"}]},{"type":"error","name":"ERC20InvalidSender","inputs":[{"name":"sender","type":"address","internalType":"address"}]},{"type":"error","name":"ERC20InvalidSpender","inputs":[{"name":"spender","type":"address","internalType":"address"}]}],"bytecode":{"object":"0x608060405260078054736e821cb51fa7a81c213452b1dfc9d7f211c13c086001600160a01b03199182168117909255600880549091169091179055600a600e55605a600f5534801561005057600080fd5b5060405161233d38038061233d83398101604081905261006f916101e6565b8383600361007d83826102fc565b50600461008a82826102fc565b5050506001600160a01b0382166100e75760405162461bcd60e51b815260206004820152601660248201527f646f6e2774207375626d69742061646472657373203000000000000000000000604482015260640160405180910390fd5b600980546001600160a01b039093166001600160a01b03199384168117909155600b805484169091179055600d55600c805490911633179055506103bb9050565b634e487b7160e01b600052604160045260246000fd5b600082601f83011261014f57600080fd5b81516001600160401b038082111561016957610169610128565b604051601f8301601f19908116603f0116810190828211818310171561019157610191610128565b81604052838152602092508660208588010111156101ae57600080fd5b600091505b838210156101d057858201830151818301840152908201906101b3565b6000602085830101528094505050505092915050565b600080600080608085870312156101fc57600080fd5b84516001600160401b038082111561021357600080fd5b61021f8883890161013e565b9550602087015191508082111561023557600080fd5b506102428782880161013e565b604087015190945090506001600160a01b038116811461026157600080fd5b6060959095015193969295505050565b600181811c9082168061028557607f821691505b6020821081036102a557634e487b7160e01b600052602260045260246000fd5b50919050565b601f8211156102f7576000816000526020600020601f850160051c810160208610156102d45750805b601f850160051c820191505b818110156102f3578281556001016102e0565b5050505b505050565b81516001600160401b0381111561031557610315610128565b610329816103238454610271565b846102ab565b602080601f83116001811461035e57600084156103465750858301515b600019600386901b1c1916600185901b1785556102f3565b600085815260208120601f198616915b8281101561038d5788860151825594840194600190910190840161036e565b50858210156103ab5787850151600019600388901b60f8161c191681555b5050505050600190811b01905550565b611f73806103ca6000396000f3fe608060405234801561001057600080fd5b50600436106101165760003560e01c80638f620487116100a2578063d028053911610071578063d02805391461022b578063dd62ed3e1461023e578063ed05ae7814610277578063fb1b5c7b1461028a578063fc3ebcde146102a557600080fd5b80638f620487146101f457806395d89b41146101fd578063a9059cbb14610205578063b6b55f251461021857600080fd5b8063313ce567116100e9578063313ce567146101815780636cca3c2f1461019057806370a08231146101a5578063835fc6ca146101ce5780638e4cb777146101e157600080fd5b806306fdde031461011b578063095ea7b31461013957806318160ddd1461015c57806323b872dd1461016e575b600080fd5b6101236102b8565b6040516101309190611bb9565b60405180910390f35b61014c610147366004611c08565b61034a565b6040519015158152602001610130565b6002545b604051908152602001610130565b61014c61017c366004611c32565b610364565b60405160128152602001610130565b6101a361019e366004611c6e565b610388565b005b6101606101b3366004611cb2565b6001600160a01b031660009081526020819052604090205490565b6101a36101dc366004611ccd565b610584565b6101a36101ef366004611cb2565b61080b565b610160600d5481565b6101236108f9565b61014c610213366004611c08565b610908565b6101a3610226366004611ccd565b610916565b6101a3610239366004611c6e565b610ac7565b61016061024c366004611ce6565b6001600160a01b03918216600090815260016020908152604080832093909416825291909152205490565b610160610285366004611cb2565b610cc7565b6009546040516001600160a01b039091168152602001610130565b6101a36102b3366004611c6e565b610cf8565b6060600380546102c790611d19565b80601f01602080910402602001604051908101604052809291908181526020018280546102f390611d19565b80156103405780601f1061031557610100808354040283529160200191610340565b820191906000526020600020905b81548152906001019060200180831161032357829003601f168201915b5050505050905090565b60003361035881858561100c565b60019150505b92915050565b60003361037285828561101e565b61037d85858561109c565b506001949350505050565b61039533858585856110fb565b6103a133600f5461138c565b6040516370a0823160e01b81523060048201526001600160a01b038316906370a0823190602401602060405180830381865afa1580156103e5573d6000803e3d6000fd5b505050506040513d601f19601f820116820180604052508101906104099190611d53565b81111561045d5760405162461bcd60e51b815260206004820181905260248201527f496e73756666696369656e7420617373657420666f7220626f72726f77696e6760448201526064015b60405180910390fd5b60405163a9059cbb60e01b8152336004820152602481018490526001600160a01b0385169063a9059cbb906044016020604051808303816000875af11580156104aa573d6000803e3d6000fd5b505050506040513d601f19601f820116820180604052508101906104ce9190611d6c565b506040516323b872dd60e01b81526001600160a01b038316906323b872dd906104ff90339030908690600401611d8e565b6020604051808303816000875af115801561051e573d6000803e3d6000fd5b505050506040513d601f19601f820116820180604052508101906105429190611d6c565b507ffc5616f01e1c1dbb08a12619251fb851d6b75274ceb88d493e5894a5eea00e6833838360405161057693929190611d8e565b60405180910390a150505050565b600d544210156105f35760405162461bcd60e51b815260206004820152603460248201527f7769746864726177616c7320617265206f6e6c7920706f737369626c652061666044820152733a32b9103a34329032bc3834b93c903230ba329760611b6064820152608401610454565b600081116106315760405162461bcd60e51b815260206004820152600b60248201526a0616d6f756e74203c3d20360ac1b6044820152606401610454565b600b546040516370a0823160e01b815230600482015282916001600160a01b0316906370a0823190602401602060405180830381865afa158015610679573d6000803e3d6000fd5b505050506040513d601f19601f8201168201806040525081019061069d9190611d53565b10156107115760405162461bcd60e51b815260206004820152603e60248201527f546865206c6f616e2072657061796d656e7420697320696e737566666963696560448201527f6e742e20506c65617365207574696c697a6520616e2061756374696f6e2e00006064820152608401610454565b336000908152600a602052604090205481111561072d57600080fd5b610738333083610364565b50600b5460405163a9059cbb60e01b8152336004820152602481018390526001600160a01b039091169063a9059cbb906044016020604051808303816000875af115801561078a573d6000803e3d6000fd5b505050506040513d601f19601f820116820180604052508101906107ae9190611d6c565b50336000908152600a6020526040812080548392906107ce908490611dc8565b909155505060405181815233907fd8780354fe97a0d2c1f43e3316224e918acba5b03503909f26466920669b17d49060200160405180910390a250565b61081781600f54611555565b6001600160a01b038082166000908152600560209081526040808320600181015490549094168352600690915281208054909190610856908490611ddb565b90915550506001600160a01b0380821660008181526005602052604090819020805460019091015491519316927f917339971270efa613532e29b99bbea26c2f07382698f0815d019fe4242018ec916108b29190815260200190565b60405180910390a36001600160a01b0380821660009081526005602052604090208054600182015460028301546003909301546108f69486949381169316906110fb565b50565b6060600480546102c790611d19565b60003361035881858561109c565b600081116109545760405162461bcd60e51b815260206004820152600b60248201526a0616d6f756e74203c3d20360ac1b6044820152606401610454565b600d5442106109a55760405162461bcd60e51b815260206004820152601f60248201527f7468652065787069726174696f6e206461746520686173207061737365642e006044820152606401610454565b600b546040516323b872dd60e01b81526001600160a01b03909116906323b872dd906109d990339030908690600401611d8e565b6020604051808303816000875af11580156109f8573d6000803e3d6000fd5b505050506040513d601f19601f82011682018060405250810190610a1c9190611d6c565b50336000908152600a602052604081208054839290610a3c908490611ddb565b925050819055506000600e546103e842600d54610a599190611dc8565b610a639190611dee565b610a6d9190611e10565b610a78906001611ddb565b610a829083611e10565b9050610a8e33826116f1565b60405182815233907fffaad6a51867cde4125cd8ca83b3ebe39a412938c5be43e149bad7e431112ba29060200160405180910390a25050565b610ad4338585858561172b565b610ae033600f5461138c565b6040516370a0823160e01b81523060048201526001600160a01b038316906370a0823190602401602060405180830381865afa158015610b24573d6000803e3d6000fd5b505050506040513d601f19601f82011682018060405250810190610b489190611d53565b811115610b975760405162461bcd60e51b815260206004820181905260248201527f496e73756666696369656e7420617373657420666f7220626f72726f77696e676044820152606401610454565b6040516323b872dd60e01b81526001600160a01b038516906323b872dd90610bc790339030908890600401611d8e565b6020604051808303816000875af1158015610be6573d6000803e3d6000fd5b505050506040513d601f19601f82011682018060405250810190610c0a9190611d6c565b5060405163a9059cbb60e01b8152336004820152602481018290526001600160a01b0383169063a9059cbb906044016020604051808303816000875af1158015610c58573d6000803e3d6000fd5b505050506040513d601f19601f82011682018060405250810190610c7c9190611d6c565b50604080516001600160a01b03841681526020810183905233917f3515b35de5139187b5f1cfc0684ee199a130937eae5916c3fb3d73124ae0c949910160405180910390a250505050565b60006001600160a01b038216610cdc57600080fd5b506001600160a01b03166000908152600a602052604090205490565b60008311610d0557600080fd5b60008111610d1257600080fd5b6001600160a01b038216600090815260066020526040902054811115610d7a5760405162461bcd60e51b815260206004820181905260248201527f6c61636b206f66206c69717569646174696f6e20617373657420616d6f756e746044820152606401610454565b6008546040516341976e0960e01b81526001600160a01b03868116600483015260009216906341976e0990602401602060405180830381865afa158015610dc5573d6000803e3d6000fd5b505050506040513d601f19601f82011682018060405250810190610de99190611d53565b610df39085611e10565b6007546040516341976e0960e01b81526001600160a01b03868116600483015292935060009260149216906341976e0990602401602060405180830381865afa158015610e44573d6000803e3d6000fd5b505050506040513d601f19601f82011682018060405250810190610e689190611d53565b610e729085611e10565b610e7d906013611e10565b610e879190611dee565b9050808211610ee45760405162461bcd60e51b8152602060048201526024808201527f6c61636b206f662076616c7565206f72206e6f74206176616c6961626c6520616044820152631cdcd95d60e21b6064820152608401610454565b6001600160a01b038416600090815260066020526040902054610f079084611932565b6001600160a01b03808616600090815260066020526040908190209290925590516323b872dd60e01b8152908716906323b872dd90610f4e90339030908a90600401611d8e565b6020604051808303816000875af1158015610f6d573d6000803e3d6000fd5b505050506040513d601f19601f82011682018060405250810190610f919190611d6c565b5060405163a9059cbb60e01b8152336004820152602481018490526001600160a01b0385169063a9059cbb906044016020604051808303816000875af1158015610fdf573d6000803e3d6000fd5b505050506040513d601f19601f820116820180604052508101906110039190611d6c565b50505050505050565b6110198383836001611952565b505050565b6001600160a01b038381166000908152600160209081526040808320938616835292905220546000198114611096578181101561108757604051637dc7a0d960e11b81526001600160a01b03841660048201526024810182905260448101839052606401610454565b61109684848484036000611952565b50505050565b6001600160a01b0383166110c657604051634b637e8f60e11b815260006004820152602401610454565b6001600160a01b0382166110f05760405163ec442f0560e01b815260006004820152602401610454565b611019838383611a27565b60008311801561110b5750600081115b61111457600080fd5b6001600160a01b038516600090815260056020526040902060010154158061115457506001600160a01b0385811660009081526005602052604090205416155b8061117b57506001600160a01b038581166000908152600560205260409020548116908516145b61118457600080fd5b6001600160a01b03851660009081526005602052604090206003015415806111c757506001600160a01b0385811660009081526005602052604090206002015416155b806111f157506001600160a01b038581166000908152600560205260409020600201548116908316145b6111fa57600080fd5b6001600160a01b03858116600090815260056020526040902080546001600160a01b031916918616919091178155600101546112369084611932565b6001600160a01b038616600090815260056020526040812060010182905503611280576001600160a01b038516600090815260056020526040902080546001600160a01b03191690555b6001600160a01b0385811660009081526005602052604090206002810180546001600160a01b03191692851692909217909155600301546112c19082611932565b6001600160a01b03861660009081526005602052604081206003018290550361130e576001600160a01b038516600090815260056020526040902060020180546001600160a01b03191690555b6001600160a01b0385811660008181526005602090815260409182902080546001820154600283015460039093015485519288168352938201529416918401919091526060830152907f10e6ffbf70ea11db87f1498a9f8c54026213877a9f5beb696c705b476ddc053c906080015b60405180910390a25050505050565b6007546001600160a01b038381166000908152600560205260408082205490516341976e0960e01b81529083166004820152909291909116906341976e0990602401602060405180830381865afa1580156113eb573d6000803e3d6000fd5b505050506040513d601f19601f8201168201806040525081019061140f9190611d53565b6007546001600160a01b038581166000908152600560205260408082206002015490516341976e0960e01b81529083166004820152939450929116906341976e0990602401602060405180830381865afa158015611471573d6000803e3d6000fd5b505050506040513d601f19601f820116820180604052508101906114959190611d53565b6001600160a01b038516600090815260056020526040812060010154919250906114c0908490611e10565b6001600160a01b038616600090815260056020526040812060030154919250906114eb908490611e10565b90508060646114fa8785611e10565b6115049190611dee565b1161150e83611b51565b61151783611b51565b604051602001611528929190611e27565b604051602081830303815290604052906110035760405162461bcd60e51b81526004016104549190611bb9565b6007546001600160a01b038381166000908152600560205260408082205490516341976e0960e01b81529083166004820152909291909116906341976e0990602401602060405180830381865afa1580156115b4573d6000803e3d6000fd5b505050506040513d601f19601f820116820180604052508101906115d89190611d53565b6007546001600160a01b038581166000908152600560205260408082206002015490516341976e0960e01b81529083166004820152939450929116906341976e0990602401602060405180830381865afa15801561163a573d6000803e3d6000fd5b505050506040513d601f19601f8201168201806040525081019061165e9190611d53565b6001600160a01b03851660009081526005602052604081206001015491925090611689908490611e10565b6001600160a01b038616600090815260056020526040812060030154919250906116b4908490611e10565b90508060646116c38785611e10565b6116cd9190611dee565b106116d783611b51565b6116e083611b51565b604051602001611528929190611eb6565b6001600160a01b03821661171b5760405163ec442f0560e01b815260006004820152602401610454565b61172760008383611a27565b5050565b60008311801561173b5750600081115b61174457600080fd5b6001600160a01b038516600090815260056020526040902060010154158061178457506001600160a01b0385811660009081526005602052604090205416155b806117ab57506001600160a01b038581166000908152600560205260409020548116908516145b6117b457600080fd5b6001600160a01b03851660009081526005602052604090206003015415806117f757506001600160a01b0385811660009081526005602052604090206002015416155b8061182157506001600160a01b038581166000908152600560205260409020600201548116908316145b61182a57600080fd5b6001600160a01b03858116600090815260056020526040812080546001600160a01b0319169287169290921782556001909101805485929061186d908490611ddb565b90915550506001600160a01b0385811660009081526005602052604081206002810180546001600160a01b03191693861693909317909255600390910180548392906118ba908490611ddb565b90915550506001600160a01b0385811660008181526005602090815260409182902080546001820154600283015460039093015485519288168352938201529416918401919091526060830152907f10e6ffbf70ea11db87f1498a9f8c54026213877a9f5beb696c705b476ddc053c9060800161137d565b60008183101561194157600080fd5b61194b8284611dc8565b9392505050565b6001600160a01b03841661197c5760405163e602df0560e01b815260006004820152602401610454565b6001600160a01b0383166119a657604051634a1406b160e11b815260006004820152602401610454565b6001600160a01b038085166000908152600160209081526040808320938716835292905220829055801561109657826001600160a01b0316846001600160a01b03167f8c5be1e5ebec7d5bd14f71427d1e84f3dd0314c0f7b2291e5b200ac8c7c3b92584604051611a1991815260200190565b60405180910390a350505050565b6001600160a01b038316611a52578060026000828254611a479190611ddb565b90915550611ac49050565b6001600160a01b03831660009081526020819052604090205481811015611aa55760405163391434e360e21b81526001600160a01b03851660048201526024810182905260448101839052606401610454565b6001600160a01b03841660009081526020819052604090209082900390555b6001600160a01b038216611ae057600280548290039055611aff565b6001600160a01b03821660009081526020819052604090208054820190555b816001600160a01b0316836001600160a01b03167fddf252ad1be2c89b69c2b068fc378daa952ba7f163c4a11628f55a4df523b3ef83604051611b4491815260200190565b60405180910390a3505050565b60606080604051019050602081016040526000815280600019835b928101926030600a8206018453600a900480611b6c575050819003601f19909101908152919050565b60005b83811015611bb0578181015183820152602001611b98565b50506000910152565b6020815260008251806020840152611bd8816040850160208701611b95565b601f01601f19169190910160400192915050565b80356001600160a01b0381168114611c0357600080fd5b919050565b60008060408385031215611c1b57600080fd5b611c2483611bec565b946020939093013593505050565b600080600060608486031215611c4757600080fd5b611c5084611bec565b9250611c5e60208501611bec565b9150604084013590509250925092565b60008060008060808587031215611c8457600080fd5b611c8d85611bec565b935060208501359250611ca260408601611bec565b9396929550929360600135925050565b600060208284031215611cc457600080fd5b61194b82611bec565b600060208284031215611cdf57600080fd5b5035919050565b60008060408385031215611cf957600080fd5b611d0283611bec565b9150611d1060208401611bec565b90509250929050565b600181811c90821680611d2d57607f821691505b602082108103611d4d57634e487b7160e01b600052602260045260246000fd5b50919050565b600060208284031215611d6557600080fd5b5051919050565b600060208284031215611d7e57600080fd5b8151801515811461194b57600080fd5b6001600160a01b039384168152919092166020820152604081019190915260600190565b634e487b7160e01b600052601160045260246000fd5b8181038181111561035e5761035e611db2565b8082018082111561035e5761035e611db2565b600082611e0b57634e487b7160e01b600052601260045260246000fd5b500490565b808202811582820484141761035e5761035e611db2565b7f496e73756666696369656e7420436f6c6c61746572616c00000000000000000081527201021b7b63630ba32b930b62b30b63ab2901d1606d1b601782015260008351611e7b81602a850160208801611b95565b6e0102137b93937bbab30b63ab2901d1608d1b602a918401918201528351611eaa816039840160208801611b95565b01603901949350505050565b7414dd59999a58da595b9d0810dbdb1b185d195c985b605a1b81527201021b7b63630ba32b930b62b30b63ab2901d1606d1b601582015260008351611f02816028850160208801611b95565b6e0102137b93937bbab30b63ab2901d1608d1b6028918401918201528351611f31816037840160208801611b95565b0160370194935050505056fea2646970667358221220b859bc00199e39716001fcbe3c5cb3bed8e73b0f754fc6711433888c04ac987864736f6c63430008190033","linkReferences":{}},"methodIdentifiers":{"allowance(address,address)":"dd62ed3e","approve(address,uint256)":"095ea7b3","balanceOf(address)":"70a08231","borrow(address,uint256,address,uint256)":"d0280539","buyLiquidationAsset(address,uint256,address,uint256)":"fc3ebcde","decimals()":"313ce567","deposit(uint256)":"b6b55f25","expirationDate()":"8f620487","getDepositBalance(address)":"ed05ae78","getDepositToken()":"fb1b5c7b","name()":"06fdde03","repayment(address,uint256,address,uint256)":"6cca3c2f","symbol()":"95d89b41","totalSupply()":"18160ddd","transfer(address,uint256)":"a9059cbb","transferFrom(address,address,uint256)":"23b872dd","tryLiquidation(address)":"8e4cb777","withdrawal(uint256)":"835fc6ca"},"id":27}