{"abi":[{"type":"constructor","inputs":[],"stateMutability":"nonpayable"},{"type":"fallback","stateMutability":"payable"},{"type":"receive","stateMutability":"payable"},{"type":"function","name":"owner","inputs":[],"outputs":[{"name":"","type":"address","internalType":"address"}],"stateMutability":"view"},{"type":"function","name":"setImplementation","inputs":[{"name":"newImplementationAddress","type":"address","internalType":"address"}],"outputs":[{"name":"","type":"address","internalType":"address"}],"stateMutability":"nonpayable"}],"bytecode":{"object":"0x608060405234801561001057600080fd5b50600180546001600160a01b031916331790556101b2806100326000396000f3fe60806040526004361061002d5760003560e01c80638da5cb5b1461003e578063d784d4261461007457610034565b3661003457005b61003c610094565b005b34801561004a57600080fd5b506001546001600160a01b03165b6040516001600160a01b03909116815260200160405180910390f35b34801561008057600080fd5b5061005861008f36600461014c565b6100b0565b6100ae6100a96000546001600160a01b031690565b6100d9565b565b60006100ba6100fd565b50600080546001600160a01b0319166001600160a01b03831617905590565b3660008037600080366000845af43d6000803e8080156100f8573d6000f35b3d6000fd5b6001546001600160a01b031633146100ae5760405162461bcd60e51b815260206004820152600e60248201526d27b7363c902337b91027bbb732b960911b604482015260640160405180910390fd5b60006020828403121561015e57600080fd5b81356001600160a01b038116811461017557600080fd5b939250505056fea264697066735822122013d145ddf144678ff10bf0906f4c3f1dfcea7a25dc94fb63ff9c0e116dc8db7a64736f6c63430008170033","linkReferences":{}},"methodIdentifiers":{"owner()":"8da5cb5b","setImplementation(address)":"d784d426"},"id":7}