{"abi":[{"type":"function","name":"getPrice","inputs":[{"name":"_assetAddress","type":"address","internalType":"address"}],"outputs":[{"name":"","type":"uint256","internalType":"uint256"}],"stateMutability":"view"},{"type":"function","name":"setPrice","inputs":[{"name":"_assetAddress","type":"address","internalType":"address"},{"name":"_assetPrice","type":"uint256","internalType":"uint256"}],"outputs":[{"name":"","type":"uint256","internalType":"uint256"}],"stateMutability":"nonpayable"},{"type":"event","name":"setPriceTo","inputs":[{"name":"_assetAddress","type":"address","indexed":false,"internalType":"address"},{"name":"_assetPrice","type":"uint256","indexed":false,"internalType":"uint256"}],"anonymous":false}],"bytecode":{"object":"0x6080604052348015600f57600080fd5b506101808061001f6000396000f3fe608060405234801561001057600080fd5b50600436106100355760003560e01c8062e4768b1461003a57806341976e091461005f575b600080fd5b61004d6100483660046100fe565b610088565b60405190815260200160405180910390f35b61004d61006d366004610128565b6001600160a01b031660009081526020819052604090205490565b6001600160a01b038216600081815260208181526040808320859055805193845290830184905290917f4f789d71cf9bf031ea385e257e27301375dc3ceca1da7c27aae67810ecdc6a52910160405180910390a150919050565b80356001600160a01b03811681146100f957600080fd5b919050565b6000806040838503121561011157600080fd5b61011a836100e2565b946020939093013593505050565b60006020828403121561013a57600080fd5b610143826100e2565b939250505056fea2646970667358221220827507c415ce4c69ae3d85508ed0b3c85b055f4bc47390577a0a80d052e1600d64736f6c63430008190033","linkReferences":{}},"methodIdentifiers":{"getPrice(address)":"41976e09","setPrice(address,uint256)":"00e4768b"},"id":29}